{
  "contractName": "Faucet",
  "abi": [
    {
      "inputs": [],
      "name": "numOfFunders",
      "outputs": [
        {
          "internalType": "uint256",
          "name": "",
          "type": "uint256"
        }
      ],
      "stateMutability": "view",
      "type": "function",
      "constant": true
    },
    {
      "inputs": [],
      "name": "owner",
      "outputs": [
        {
          "internalType": "address",
          "name": "",
          "type": "address"
        }
      ],
      "stateMutability": "view",
      "type": "function",
      "constant": true
    },
    {
      "stateMutability": "payable",
      "type": "receive",
      "payable": true
    },
    {
      "inputs": [
        {
          "internalType": "address",
          "name": "newOwner",
          "type": "address"
        }
      ],
      "name": "transferOwnership",
      "outputs": [],
      "stateMutability": "nonpayable",
      "type": "function"
    },
    {
      "inputs": [],
      "name": "addFunds",
      "outputs": [],
      "stateMutability": "payable",
      "type": "function",
      "payable": true
    },
    {
      "inputs": [],
      "name": "test",
      "outputs": [],
      "stateMutability": "nonpayable",
      "type": "function"
    },
    {
      "inputs": [],
      "name": "test2",
      "outputs": [],
      "stateMutability": "nonpayable",
      "type": "function"
    },
    {
      "inputs": [
        {
          "internalType": "uint256",
          "name": "withdrawalAmount",
          "type": "uint256"
        }
      ],
      "name": "withdraw",
      "outputs": [],
      "stateMutability": "nonpayable",
      "type": "function"
    },
    {
      "inputs": [],
      "name": "getAllFunders",
      "outputs": [
        {
          "internalType": "address[]",
          "name": "",
          "type": "address[]"
        }
      ],
      "stateMutability": "view",
      "type": "function",
      "constant": true
    },
    {
      "inputs": [
        {
          "internalType": "uint8",
          "name": "index",
          "type": "uint8"
        }
      ],
      "name": "getFunderAtIndex",
      "outputs": [
        {
          "internalType": "address",
          "name": "",
          "type": "address"
        }
      ],
      "stateMutability": "view",
      "type": "function",
      "constant": true
    }
  ],
  "bytecode": "0x608060405234801561001057600080fd5b50336000806101000a81548173ffffffffffffffffffffffffffffffffffffffff021916908373ffffffffffffffffffffffffffffffffffffffff160217905550610b95806100606000396000f3fe60806040526004361061008a5760003560e01c80638da5cb5b116100595780638da5cb5b1461013e578063a26759cb14610169578063af7f2c9b14610173578063f2fde38b1461019e578063f8a8fd6d146101c757610091565b80630a93cf33146100965780632e1a7d4d146100d357806366e41cb7146100fc5780636fbbb55d1461011357610091565b3661009157005b600080fd5b3480156100a257600080fd5b506100bd60048036038101906100b891906107c7565b6101de565b6040516100ca91906108d9565b60405180910390f35b3480156100df57600080fd5b506100fa60048036038101906100f5919061079e565b61021e565b005b34801561010857600080fd5b506101116102b5565b005b34801561011f57600080fd5b50610128610345565b60405161013591906108f4565b60405180910390f35b34801561014a57600080fd5b5061015361048b565b60405161016091906108d9565b60405180910390f35b6101716104af565b005b34801561017f57600080fd5b506101886105cf565b6040516101959190610956565b60405180910390f35b3480156101aa57600080fd5b506101c560048036038101906101c09190610775565b6105d5565b005b3480156101d357600080fd5b506101dc6106a6565b005b6000600360008360ff16815260200190815260200160002060009054906101000a900473ffffffffffffffffffffffffffffffffffffffff169050919050565b8067016345785d8a000081111561026a576040517f08c379a000000000000000000000000000000000000000000000000000000000815260040161026190610936565b60405180910390fd5b3373ffffffffffffffffffffffffffffffffffffffff166108fc839081150290604051600060405180830381858888f193505050501580156102b0573d6000803e3d6000fd5b505050565b60008054906101000a900473ffffffffffffffffffffffffffffffffffffffff1673ffffffffffffffffffffffffffffffffffffffff163373ffffffffffffffffffffffffffffffffffffffff1614610343576040517f08c379a000000000000000000000000000000000000000000000000000000000815260040161033a90610916565b60405180910390fd5b565b6060600060015467ffffffffffffffff81111561038b577f4e487b7100000000000000000000000000000000000000000000000000000000600052604160045260246000fd5b6040519080825280602002602001820160405280156103b95781602001602082028036833780820191505090505b50905060005b600154811015610483576003600082815260200190815260200160002060009054906101000a900473ffffffffffffffffffffffffffffffffffffffff16828281518110610436577f4e487b7100000000000000000000000000000000000000000000000000000000600052603260045260246000fd5b602002602001019073ffffffffffffffffffffffffffffffffffffffff16908173ffffffffffffffffffffffffffffffffffffffff1681525050808061047b90610a04565b9150506103bf565b508091505090565b60008054906101000a900473ffffffffffffffffffffffffffffffffffffffff1681565b6000339050600260008273ffffffffffffffffffffffffffffffffffffffff1673ffffffffffffffffffffffffffffffffffffffff16815260200190815260200160002060009054906101000a900460ff166105cc5760006001600081548092919061051a90610a04565b9190505590506001600260008473ffffffffffffffffffffffffffffffffffffffff1673ffffffffffffffffffffffffffffffffffffffff16815260200190815260200160002060006101000a81548160ff021916908315150217905550816003600083815260200190815260200160002060006101000a81548173ffffffffffffffffffffffffffffffffffffffff021916908373ffffffffffffffffffffffffffffffffffffffff160217905550505b50565b60015481565b60008054906101000a900473ffffffffffffffffffffffffffffffffffffffff1673ffffffffffffffffffffffffffffffffffffffff163373ffffffffffffffffffffffffffffffffffffffff1614610663576040517f08c379a000000000000000000000000000000000000000000000000000000000815260040161065a90610916565b60405180910390fd5b806000806101000a81548173ffffffffffffffffffffffffffffffffffffffff021916908373ffffffffffffffffffffffffffffffffffffffff16021790555050565b60008054906101000a900473ffffffffffffffffffffffffffffffffffffffff1673ffffffffffffffffffffffffffffffffffffffff163373ffffffffffffffffffffffffffffffffffffffff1614610734576040517f08c379a000000000000000000000000000000000000000000000000000000000815260040161072b90610916565b60405180910390fd5b565b60008135905061074581610b1a565b92915050565b60008135905061075a81610b31565b92915050565b60008135905061076f81610b48565b92915050565b60006020828403121561078757600080fd5b600061079584828501610736565b91505092915050565b6000602082840312156107b057600080fd5b60006107be8482850161074b565b91505092915050565b6000602082840312156107d957600080fd5b60006107e784828501610760565b91505092915050565b60006107fc8383610808565b60208301905092915050565b610811816109bb565b82525050565b610820816109bb565b82525050565b600061083182610981565b61083b8185610999565b935061084683610971565b8060005b8381101561087757815161085e88826107f0565b97506108698361098c565b92505060018101905061084a565b5085935050505092915050565b60006108916021836109aa565b915061089c82610a7c565b604082019050919050565b60006108b46023836109aa565b91506108bf82610acb565b604082019050919050565b6108d3816109ed565b82525050565b60006020820190506108ee6000830184610817565b92915050565b6000602082019050818103600083015261090e8184610826565b905092915050565b6000602082019050818103600083015261092f81610884565b9050919050565b6000602082019050818103600083015261094f816108a7565b9050919050565b600060208201905061096b60008301846108ca565b92915050565b6000819050602082019050919050565b600081519050919050565b6000602082019050919050565b600082825260208201905092915050565b600082825260208201905092915050565b60006109c6826109cd565b9050919050565b600073ffffffffffffffffffffffffffffffffffffffff82169050919050565b6000819050919050565b600060ff82169050919050565b6000610a0f826109ed565b91507fffffffffffffffffffffffffffffffffffffffffffffffffffffffffffffffff821415610a4257610a41610a4d565b5b600182019050919050565b7f4e487b7100000000000000000000000000000000000000000000000000000000600052601160045260246000fd5b7f4f6e6c79206f776e65722063616e2063616c6c20746869732066756e6374696f60008201527f6e00000000000000000000000000000000000000000000000000000000000000602082015250565b7f43616e6e6f74207769746864726177206d6f7265207468616e20302e3120657460008201527f6865720000000000000000000000000000000000000000000000000000000000602082015250565b610b23816109bb565b8114610b2e57600080fd5b50565b610b3a816109ed565b8114610b4557600080fd5b50565b610b51816109f7565b8114610b5c57600080fd5b5056fea2646970667358221220697ea58744f1a7f567c27a5b9df40dca700b71e1a0e105624529b88e988ca00d64736f6c63430008040033",
  "immutableReferences": {},
  "source": "// SPDX-License-Identifier: MIT\r\npragma solidity >=0.4.22 <0.9.0;\r\nimport \"./Owned.sol\";\r\n\r\ncontract Faucet is Owned {\r\n   uint public numOfFunders;\r\n   mapping(address => bool) private funders;\r\n   mapping(uint => address) private lutFunders;\r\n\r\n \r\n   modifier limitWithdrawal(uint withdrawalAmount) {\r\n     require(withdrawalAmount <= 100000000000000000, \"Cannot withdraw more than 0.1 ether\"); \r\n     _;\r\n   }\r\n\r\n\r\n   receive() external payable {}\r\n\r\n   function transferOwnership(address newOwner) public onlyOwner() {\r\n      owner = newOwner;\r\n   }\r\n\r\n   function addFunds() external payable {\r\n     address funder = msg.sender;\r\n     if(!funders[funder]) {\r\n      uint index = numOfFunders++;\r\n      funders[funder] = true;\r\n      lutFunders[index] = funder;\r\n     }\r\n   }\r\n\r\n   function test() external onlyOwner() {\r\n      // some managing stuff that only admin should have access to.\r\n   }\r\n\r\n   function test2() external onlyOwner() {\r\n      // some managing stuff that only admin should have access to.\r\n   }\r\n\r\n   function withdraw(uint withdrawalAmount) external limitWithdrawal(withdrawalAmount) {\r\n      payable(msg.sender).transfer(withdrawalAmount);   \r\n   }\r\n\r\n   function getAllFunders() external view returns (address[] memory) {\r\n      address[] memory _funders = new address[](numOfFunders);\r\n\r\n      for (uint i = 0; i < numOfFunders; i++) {\r\n         _funders[i] = lutFunders[i];\r\n      }\r\n      return _funders;\r\n   }\r\n\r\n   function getFunderAtIndex(uint8 index) public view returns(address) {\r\n   return lutFunders[index];\r\n   }\r\n}",
  "sourcePath": "C:\\Users\\HP\\Desktop\\blockchain\\faucet\\contracts\\Faucet.sol",
  "compiler": {
    "name": "solc",
    "version": "0.8.4+commit.c7e474f2.Emscripten.clang"
  },
  "schemaVersion": "3.4.16",
  "updatedAt": "2024-12-18T05:17:12.029Z",
  "networkType": "ethereum",
  "devdoc": {
    "kind": "dev",
    "methods": {},
    "version": 1
  },
  "userdoc": {
    "kind": "user",
    "methods": {},
    "version": 1
  }
}