{
  "contractName": "Faucet",
  "abi": [
    {
      "inputs": [],
      "name": "numOfFunders",
      "outputs": [
        {
          "internalType": "uint256",
          "name": "",
          "type": "uint256"
        }
      ],
      "stateMutability": "view",
      "type": "function"
    },
    {
      "stateMutability": "payable",
      "type": "receive"
    },
    {
      "inputs": [],
      "name": "addFunds",
      "outputs": [],
      "stateMutability": "payable",
      "type": "function"
    },
    {
      "inputs": [
        {
          "internalType": "uint256",
          "name": "withdrawalAmount",
          "type": "uint256"
        }
      ],
      "name": "withdraw",
      "outputs": [],
      "stateMutability": "nonpayable",
      "type": "function"
    },
    {
      "inputs": [],
      "name": "getAllFunders",
      "outputs": [
        {
          "internalType": "address[]",
          "name": "",
          "type": "address[]"
        }
      ],
      "stateMutability": "view",
      "type": "function"
    },
    {
      "inputs": [
        {
          "internalType": "uint8",
          "name": "index",
          "type": "uint8"
        }
      ],
      "name": "getFunderAtIndex",
      "outputs": [
        {
          "internalType": "address",
          "name": "",
          "type": "address"
        }
      ],
      "stateMutability": "view",
      "type": "function"
    }
  ],
  "bytecode": "0x608060405234801561001057600080fd5b506107d8806100206000396000f3fe60806040526004361061004e5760003560e01c80630a93cf331461005a5780632e1a7d4d146100975780636fbbb55d146100c0578063a26759cb146100eb578063af7f2c9b146100f557610055565b3661005557005b600080fd5b34801561006657600080fd5b50610081600480360381019061007c91906104b3565b610120565b60405161008e91906105a2565b60405180910390f35b3480156100a357600080fd5b506100be60048036038101906100b9919061048a565b610160565b005b3480156100cc57600080fd5b506100d56101f7565b6040516100e291906105bd565b60405180910390f35b6100f361033c565b005b34801561010157600080fd5b5061010a61045a565b60405161011791906105ff565b60405180910390f35b6000600260008360ff16815260200190815260200160002060009054906101000a900473ffffffffffffffffffffffffffffffffffffffff169050919050565b8067016345785d8a00008111156101ac576040517f08c379a00000000000000000000000000000000000000000000000000000000081526004016101a3906105df565b60405180910390fd5b3373ffffffffffffffffffffffffffffffffffffffff166108fc839081150290604051600060405180830381858888f193505050501580156101f2573d6000803e3d6000fd5b505050565b60606000805467ffffffffffffffff81111561023c577f4e487b7100000000000000000000000000000000000000000000000000000000600052604160045260246000fd5b60405190808252806020026020018201604052801561026a5781602001602082028036833780820191505090505b50905060005b600054811015610334576002600082815260200190815260200160002060009054906101000a900473ffffffffffffffffffffffffffffffffffffffff168282815181106102e7577f4e487b7100000000000000000000000000000000000000000000000000000000600052603260045260246000fd5b602002602001019073ffffffffffffffffffffffffffffffffffffffff16908173ffffffffffffffffffffffffffffffffffffffff1681525050808061032c906106ad565b915050610270565b508091505090565b6000339050600160008273ffffffffffffffffffffffffffffffffffffffff1673ffffffffffffffffffffffffffffffffffffffff16815260200190815260200160002060009054906101000a900460ff166104575760008060008154809291906103a6906106ad565b91905055905060018060008473ffffffffffffffffffffffffffffffffffffffff1673ffffffffffffffffffffffffffffffffffffffff16815260200190815260200160002060006101000a81548160ff021916908315150217905550816002600083815260200190815260200160002060006101000a81548173ffffffffffffffffffffffffffffffffffffffff021916908373ffffffffffffffffffffffffffffffffffffffff160217905550505b50565b60005481565b60008135905061046f81610774565b92915050565b6000813590506104848161078b565b92915050565b60006020828403121561049c57600080fd5b60006104aa84828501610460565b91505092915050565b6000602082840312156104c557600080fd5b60006104d384828501610475565b91505092915050565b60006104e883836104f4565b60208301905092915050565b6104fd81610664565b82525050565b61050c81610664565b82525050565b600061051d8261062a565b6105278185610642565b93506105328361061a565b8060005b8381101561056357815161054a88826104dc565b975061055583610635565b925050600181019050610536565b5085935050505092915050565b600061057d602383610653565b915061058882610725565b604082019050919050565b61059c81610696565b82525050565b60006020820190506105b76000830184610503565b92915050565b600060208201905081810360008301526105d78184610512565b905092915050565b600060208201905081810360008301526105f881610570565b9050919050565b60006020820190506106146000830184610593565b92915050565b6000819050602082019050919050565b600081519050919050565b6000602082019050919050565b600082825260208201905092915050565b600082825260208201905092915050565b600061066f82610676565b9050919050565b600073ffffffffffffffffffffffffffffffffffffffff82169050919050565b6000819050919050565b600060ff82169050919050565b60006106b882610696565b91507fffffffffffffffffffffffffffffffffffffffffffffffffffffffffffffffff8214156106eb576106ea6106f6565b5b600182019050919050565b7f4e487b7100000000000000000000000000000000000000000000000000000000600052601160045260246000fd5b7f43616e6e6f74207769746864726177206d6f7265207468616e20302e3120657460008201527f6865720000000000000000000000000000000000000000000000000000000000602082015250565b61077d81610696565b811461078857600080fd5b50565b610794816106a0565b811461079f57600080fd5b5056fea264697066735822122046fdf45b8866073674047c40bdc0614117ddfae655a03f0d51bbab1a1c6920f964736f6c63430008040033",
  "immutableReferences": {},
  "source": "// SPDX-License-Identifier: MIT\r\npragma solidity >=0.4.22 <0.9.0;\r\n\r\ncontract Faucet {\r\n   uint public numOfFunders;\r\n   mapping(address => bool) private funders;\r\n   mapping(uint => address) private lutFunders;\r\n\r\n   modifier limitWithdrawal(uint withdrawalAmount) {\r\n     require(withdrawalAmount <= 100000000000000000, \"Cannot withdraw more than 0.1 ether\"); \r\n     _;\r\n   }\r\n\r\n   receive() external payable {}\r\n\r\n   function addFunds() external payable {\r\n     address funder = msg.sender;\r\n     if(!funders[funder]) {\r\n      uint index = numOfFunders++;\r\n      funders[funder] = true;\r\n      lutFunders[index] = funder;\r\n     }\r\n   }\r\n\r\n   function withdraw(uint withdrawalAmount) external limitWithdrawal(withdrawalAmount) {\r\n      payable(msg.sender).transfer(withdrawalAmount);   \r\n   }\r\n\r\n   function getAllFunders() external view returns (address[] memory) {\r\n      address[] memory _funders = new address[](numOfFunders);\r\n\r\n      for (uint i = 0; i < numOfFunders; i++) {\r\n         _funders[i] = lutFunders[i];\r\n      }\r\n      return _funders;\r\n   }\r\n\r\n   function getFunderAtIndex(uint8 index) public view returns(address) {\r\n   return lutFunders[index];\r\n   }\r\n}",
  "sourcePath": "C:\\Users\\HP\\Desktop\\blockchain\\faucet\\contracts\\Faucet.sol",
  "compiler": {
    "name": "solc",
    "version": "0.8.4+commit.c7e474f2.Emscripten.clang"
  },
  "schemaVersion": "3.4.16",
  "updatedAt": "2024-12-16T13:38:18.485Z",
  "devdoc": {
    "kind": "dev",
    "methods": {},
    "version": 1
  },
  "userdoc": {
    "kind": "user",
    "methods": {},
    "version": 1
  }
}