{
  "contractName": "Faucet",
  "abi": [
    {
      "inputs": [],
      "name": "numOfFunders",
      "outputs": [
        {
          "internalType": "uint256",
          "name": "",
          "type": "uint256"
        }
      ],
      "stateMutability": "view",
      "type": "function",
      "constant": true
    },
    {
      "stateMutability": "payable",
      "type": "receive",
      "payable": true
    },
    {
      "inputs": [],
      "name": "addFunds",
      "outputs": [],
      "stateMutability": "payable",
      "type": "function",
      "payable": true
    },
    {
      "inputs": [],
      "name": "getAllFunders",
      "outputs": [
        {
          "internalType": "address[]",
          "name": "",
          "type": "address[]"
        }
      ],
      "stateMutability": "view",
      "type": "function",
      "constant": true
    },
    {
      "inputs": [
        {
          "internalType": "uint8",
          "name": "index",
          "type": "uint8"
        }
      ],
      "name": "getFunderAtIndex",
      "outputs": [
        {
          "internalType": "address",
          "name": "",
          "type": "address"
        }
      ],
      "stateMutability": "view",
      "type": "function",
      "constant": true
    }
  ],
  "bytecode": "0x608060405234801561001057600080fd5b50610612806100206000396000f3fe6080604052600436106100435760003560e01c80630a93cf331461004f5780636fbbb55d1461008c578063a26759cb146100b7578063af7f2c9b146100c15761004a565b3661004a57005b600080fd5b34801561005b57600080fd5b50610076600480360381019061007191906103a7565b6100ec565b6040516100839190610473565b60405180910390f35b34801561009857600080fd5b506100a161012c565b6040516100ae919061048e565b60405180910390f35b6100bf610271565b005b3480156100cd57600080fd5b506100d661038c565b6040516100e391906104b0565b60405180910390f35b6000600260008360ff16815260200190815260200160002060009054906101000a900473ffffffffffffffffffffffffffffffffffffffff169050919050565b60606000805467ffffffffffffffff811115610171577f4e487b7100000000000000000000000000000000000000000000000000000000600052604160045260246000fd5b60405190808252806020026020018201604052801561019f5781602001602082028036833780820191505090505b50905060005b600054811015610269576002600082815260200190815260200160002060009054906101000a900473ffffffffffffffffffffffffffffffffffffffff1682828151811061021c577f4e487b7100000000000000000000000000000000000000000000000000000000600052603260045260246000fd5b602002602001019073ffffffffffffffffffffffffffffffffffffffff16908173ffffffffffffffffffffffffffffffffffffffff168152505080806102619061054d565b9150506101a5565b508091505090565b6000339050600160008273ffffffffffffffffffffffffffffffffffffffff1673ffffffffffffffffffffffffffffffffffffffff16815260200190815260200160002060009054906101000a900460ff16610389576000808154809291906102d99061054d565b919050555060018060008373ffffffffffffffffffffffffffffffffffffffff1673ffffffffffffffffffffffffffffffffffffffff16815260200190815260200160002060006101000a81548160ff02191690831515021790555080600260008054815260200190815260200160002060006101000a81548173ffffffffffffffffffffffffffffffffffffffff021916908373ffffffffffffffffffffffffffffffffffffffff1602179055505b50565b60005481565b6000813590506103a1816105c5565b92915050565b6000602082840312156103b957600080fd5b60006103c784828501610392565b91505092915050565b60006103dc83836103e8565b60208301905092915050565b6103f181610504565b82525050565b61040081610504565b82525050565b6000610411826104db565b61041b81856104f3565b9350610426836104cb565b8060005b8381101561045757815161043e88826103d0565b9750610449836104e6565b92505060018101905061042a565b5085935050505092915050565b61046d81610536565b82525050565b600060208201905061048860008301846103f7565b92915050565b600060208201905081810360008301526104a88184610406565b905092915050565b60006020820190506104c56000830184610464565b92915050565b6000819050602082019050919050565b600081519050919050565b6000602082019050919050565b600082825260208201905092915050565b600061050f82610516565b9050919050565b600073ffffffffffffffffffffffffffffffffffffffff82169050919050565b6000819050919050565b600060ff82169050919050565b600061055882610536565b91507fffffffffffffffffffffffffffffffffffffffffffffffffffffffffffffffff82141561058b5761058a610596565b5b600182019050919050565b7f4e487b7100000000000000000000000000000000000000000000000000000000600052601160045260246000fd5b6105ce81610540565b81146105d957600080fd5b5056fea264697066735822122017e185c4ddb3e8dd581d0e022792bd1e0c116273704ededf1f2aacc06871a62164736f6c63430008040033",
  "immutableReferences": {},
  "source": "// SPDX-License-Identifier: MIT\r\npragma solidity >=0.4.22 <0.9.0;\r\n\r\ncontract Faucet {\r\n   uint public numOfFunders;\r\n   mapping(address => bool) private funders;\r\n   mapping(uint => address) private lutFunders;\r\n\r\n   receive() external payable {}\r\n\r\n   function addFunds() external payable {\r\n     address funder = msg.sender;\r\n     if(!funders[funder]) {\r\n      numOfFunders++;\r\n      funders[funder] = true;\r\n      lutFunders[numOfFunders] = funder;\r\n     }\r\n   }\r\n\r\n   function getAllFunders() external view returns (address[] memory) {\r\n      address[] memory _funders = new address[](numOfFunders);\r\n\r\n      for (uint i = 0; i < numOfFunders; i++) {\r\n         _funders[i] = lutFunders[i];\r\n      }\r\n      return _funders;\r\n   }\r\n\r\n   function getFunderAtIndex(uint8 index) public view returns(address) {\r\n   return lutFunders[index];\r\n   }\r\n}",
  "sourcePath": "C:\\Users\\HP\\Desktop\\blockchain\\faucet\\contracts\\Faucet.sol",
  "compiler": {
    "name": "solc",
    "version": "0.8.4+commit.c7e474f2.Emscripten.clang"
  },
  "schemaVersion": "3.4.16",
  "updatedAt": "2024-12-16T11:59:49.025Z",
  "networkType": "ethereum",
  "devdoc": {
    "kind": "dev",
    "methods": {},
    "version": 1
  },
  "userdoc": {
    "kind": "user",
    "methods": {},
    "version": 1
  }
}