{
  "contractName": "Faucet",
  "abi": [
    {
      "inputs": [],
      "name": "numOfFunders",
      "outputs": [
        {
          "internalType": "uint256",
          "name": "",
          "type": "uint256"
        }
      ],
      "stateMutability": "view",
      "type": "function",
      "constant": true
    },
    {
      "stateMutability": "payable",
      "type": "receive",
      "payable": true
    },
    {
      "inputs": [],
      "name": "addFunds",
      "outputs": [],
      "stateMutability": "payable",
      "type": "function",
      "payable": true
    },
    {
      "inputs": [
        {
          "internalType": "uint256",
          "name": "withdrawAmount",
          "type": "uint256"
        }
      ],
      "name": "withdraw",
      "outputs": [],
      "stateMutability": "nonpayable",
      "type": "function"
    },
    {
      "inputs": [],
      "name": "getAllFunders",
      "outputs": [
        {
          "internalType": "address[]",
          "name": "",
          "type": "address[]"
        }
      ],
      "stateMutability": "view",
      "type": "function",
      "constant": true
    },
    {
      "inputs": [
        {
          "internalType": "uint8",
          "name": "index",
          "type": "uint8"
        }
      ],
      "name": "getFunderAtIndex",
      "outputs": [
        {
          "internalType": "address",
          "name": "",
          "type": "address"
        }
      ],
      "stateMutability": "view",
      "type": "function",
      "constant": true
    }
  ],
  "bytecode": "0x608060405234801561001057600080fd5b506106f9806100206000396000f3fe60806040526004361061004e5760003560e01c80630a93cf331461005a5780632e1a7d4d146100975780636fbbb55d146100c0578063a26759cb146100eb578063af7f2c9b146100f557610055565b3661005557005b600080fd5b34801561006657600080fd5b50610081600480360381019061007c9190610477565b610120565b60405161008e9190610543565b60405180910390f35b3480156100a357600080fd5b506100be60048036038101906100b9919061044e565b610160565b005b3480156100cc57600080fd5b506100d56101bb565b6040516100e2919061055e565b60405180910390f35b6100f3610300565b005b34801561010157600080fd5b5061010a61041e565b6040516101179190610580565b60405180910390f35b6000600260008360ff16815260200190815260200160002060009054906101000a900473ffffffffffffffffffffffffffffffffffffffff169050919050565b670de0b6b3a76400008110156101b8573373ffffffffffffffffffffffffffffffffffffffff166108fc829081150290604051600060405180830381858888f193505050501580156101b6573d6000803e3d6000fd5b505b50565b60606000805467ffffffffffffffff811115610200577f4e487b7100000000000000000000000000000000000000000000000000000000600052604160045260246000fd5b60405190808252806020026020018201604052801561022e5781602001602082028036833780820191505090505b50905060005b6000548110156102f8576002600082815260200190815260200160002060009054906101000a900473ffffffffffffffffffffffffffffffffffffffff168282815181106102ab577f4e487b7100000000000000000000000000000000000000000000000000000000600052603260045260246000fd5b602002602001019073ffffffffffffffffffffffffffffffffffffffff16908173ffffffffffffffffffffffffffffffffffffffff168152505080806102f09061061d565b915050610234565b508091505090565b6000339050600160008273ffffffffffffffffffffffffffffffffffffffff1673ffffffffffffffffffffffffffffffffffffffff16815260200190815260200160002060009054906101000a900460ff1661041b57600080600081548092919061036a9061061d565b91905055905060018060008473ffffffffffffffffffffffffffffffffffffffff1673ffffffffffffffffffffffffffffffffffffffff16815260200190815260200160002060006101000a81548160ff021916908315150217905550816002600083815260200190815260200160002060006101000a81548173ffffffffffffffffffffffffffffffffffffffff021916908373ffffffffffffffffffffffffffffffffffffffff160217905550505b50565b60005481565b60008135905061043381610695565b92915050565b600081359050610448816106ac565b92915050565b60006020828403121561046057600080fd5b600061046e84828501610424565b91505092915050565b60006020828403121561048957600080fd5b600061049784828501610439565b91505092915050565b60006104ac83836104b8565b60208301905092915050565b6104c1816105d4565b82525050565b6104d0816105d4565b82525050565b60006104e1826105ab565b6104eb81856105c3565b93506104f68361059b565b8060005b8381101561052757815161050e88826104a0565b9750610519836105b6565b9250506001810190506104fa565b5085935050505092915050565b61053d81610606565b82525050565b600060208201905061055860008301846104c7565b92915050565b6000602082019050818103600083015261057881846104d6565b905092915050565b60006020820190506105956000830184610534565b92915050565b6000819050602082019050919050565b600081519050919050565b6000602082019050919050565b600082825260208201905092915050565b60006105df826105e6565b9050919050565b600073ffffffffffffffffffffffffffffffffffffffff82169050919050565b6000819050919050565b600060ff82169050919050565b600061062882610606565b91507fffffffffffffffffffffffffffffffffffffffffffffffffffffffffffffffff82141561065b5761065a610666565b5b600182019050919050565b7f4e487b7100000000000000000000000000000000000000000000000000000000600052601160045260246000fd5b61069e81610606565b81146106a957600080fd5b50565b6106b581610610565b81146106c057600080fd5b5056fea2646970667358221220543b04f4079bfa251c6fff183af3f18aee3795666d8b867751137bf1c9ee1f7164736f6c63430008040033",
  "immutableReferences": {},
  "source": "// SPDX-License-Identifier: MIT\r\npragma solidity >=0.4.22 <0.9.0;\r\n\r\ncontract Faucet {\r\n   uint public numOfFunders;\r\n   mapping(address => bool) private funders;\r\n   mapping(uint => address) private lutFunders;\r\n\r\n   receive() external payable {}\r\n\r\n   function addFunds() external payable {\r\n     address funder = msg.sender;\r\n     if(!funders[funder]) {\r\n      uint index = numOfFunders++;\r\n      funders[funder] = true;\r\n      lutFunders[index] = funder;\r\n     }\r\n   }\r\n\r\n   function withdraw(uint withdrawAmount) external {\r\n      if(withdrawAmount < 1000000000000000000) {\r\n      payable(msg.sender).transfer(withdrawAmount);\r\n      }\r\n      \r\n   }\r\n\r\n   function getAllFunders() external view returns (address[] memory) {\r\n      address[] memory _funders = new address[](numOfFunders);\r\n\r\n      for (uint i = 0; i < numOfFunders; i++) {\r\n         _funders[i] = lutFunders[i];\r\n      }\r\n      return _funders;\r\n   }\r\n\r\n   function getFunderAtIndex(uint8 index) public view returns(address) {\r\n   return lutFunders[index];\r\n   }\r\n}",
  "sourcePath": "C:\\Users\\HP\\Desktop\\blockchain\\faucet\\contracts\\Faucet.sol",
  "compiler": {
    "name": "solc",
    "version": "0.8.4+commit.c7e474f2.Emscripten.clang"
  },
  "schemaVersion": "3.4.16",
  "updatedAt": "2024-12-16T12:57:52.815Z",
  "networkType": "ethereum",
  "devdoc": {
    "kind": "dev",
    "methods": {},
    "version": 1
  },
  "userdoc": {
    "kind": "user",
    "methods": {},
    "version": 1
  }
}